{
  "abi": [
    {
      "inputs": [
        {
          "internalType": "address",
          "name": "_airnodeRrp",
          "type": "address"
        }
      ],
      "stateMutability": "nonpayable",
      "type": "constructor"
    },
    {
      "inputs": [],
      "name": "airnodeRrp",
      "outputs": [
        {
          "internalType": "contract IAirnodeRrpV0",
          "name": "",
          "type": "address"
        }
      ],
      "stateMutability": "view",
      "type": "function"
    }
  ],
  "bytecode": {
    "object": "0x60a060405234801561001057600080fd5b5060405161018638038061018683398101604081905261002f91610099565b6001600160a01b0381166080819052604051632b77c09f60e21b81523060048201526001602482015263addf027c90604401600060405180830381600087803b15801561007b57600080fd5b505af115801561008f573d6000803e3d6000fd5b50505050506100c9565b6000602082840312156100ab57600080fd5b81516001600160a01b03811681146100c257600080fd5b9392505050565b60805160a56100e160003960006031015260a56000f3fe6080604052348015600f57600080fd5b506004361060285760003560e01c806371bab66614602d575b600080fd5b60537f000000000000000000000000000000000000000000000000000000000000000081565b6040516001600160a01b03909116815260200160405180910390f3fea2646970667358221220a583aacc364c7aafbf9d36eb69343f472d2bbd368eff24fea4c9e8a0f0c8b20264736f6c63430008090033",
    "linkReferences": {}
  },
  "methodIdentifiers": {
    "airnodeRrp()": "71bab666"
  },
  "id": 4
}