{
  "abi": [
    {
      "inputs": [
        {
          "internalType": "bytes",
          "name": "proof",
          "type": "bytes"
        },
        {
          "internalType": "uint256[]",
          "name": "instances",
          "type": "uint256[]"
        }
      ],
      "name": "verifyProof",
      "outputs": [
        {
          "internalType": "bool",
          "name": "",
          "type": "bool"
        }
      ],
      "stateMutability": "nonpayable",
      "type": "function"
    }
  ],
  "bytecode": {
    "object": "0x608060405234801561001057600080fd5b50611e2f806100206000396000f3fe608060405234801561001057600080fd5b506004361061002b5760003560e01c80631e8e1e1314610030575b600080fd5b61004361003e366004611d34565b610057565b604051901515815260200160405180910390f35b6000610263565b60008060008435602086013588821086169450888110851694508860038a8b858609850908898283099289526020890191909152149290921696604094850196509390940193505050565b60016020536021600090812092830682529190915260200190565b6000838351602085015b602087038110156100f0578781518309808452602093840193909250016100ce565b8781518309915060208352602080840152602060408401528160608401526002880360808401528760a084015260208360c08560055afa851693508251915085602081016020850394505b828110156101635789855185098a84518609908452601f19958601959094509092019161013b565b8981518509945089825185099490915292909252509095945050505050565b81604052826060526000604060006080600060065afa9091169392505050565b816040526000604060006060600060075afa90911692915050565b8160c0528260e05260006040608080608060065afa9091169392505050565b8160c0526000604060806060608060075afa90911692915050565b81600052826020526107405160405261076051606052610780516080526107a05160a0528360c0528460e0526107c051610100526107e0516101205261080051610140526108205161016052600060206000610180600060085afa600051921690911695945050505050565b7f30644e72e131a029b85045b68181585d97816a916871ca8d3c208c16d87cfd477f30644e72e131a029b85045b68181585d2833e84879b9709143e1f593f000000160017f2a0207f60ef4ac51338ad14f1d5029d7ea489e4ee039b5fa8d1c3fd0d6548c896105a05260106105c0527f30641e0e92bebef818268d663bcad6dbcfd6c0149170f6d7d350b1b1fa6c10016105e0527f09d2cc4b5782fbe923e49ace3f647643a5f5d8fb89091c3ababd582133584b29610600527f0cf312e84f2456134e812826473d3dfb577b2bfdba762aba88b47b740472c1f0610620527f17cbd779ed6ea1b8e9dbcde0345b2cfdb96e80bea0dd1318bdd0e183a00e04926106405260036106605260006106805260006106a05260006106c05260006106e0526001610700526002610720527f198e9393920d483a7260bfb731fb5d25f1aa493335a9e71297e485b7aef312c2610740527f1800deef121f1e76426a00665e5c4479674322d4f75edadd46debd5cd992f6ed610760527f090689d0585ff075ec9e99ad690c3395bc4b313370b38ef355acdadcd122975b610780527f12c85ea5db8c6deb4aab71808dcb408fe3d1e7690c43d37b4ce6cc0166fa7daa6107a0527f186282957db913abd99f91db59fe69922e95040603ef44c0bd7aa3adeef8f5ac6107c0527f17944351223333f260ddc3b4af45191b856689eda9eab5cbcddbbe570ce860d26107e0527f06d971ff4a7467c3ec596ed6efc674572e32fd6f52b721f97e35b0b3d3546753610800527f06ecdb9f9567f59ed2eee36e1e1d58797fd13cc97fafc2910f5e8a12f202fa9a610820526000610840526000610860527f1a3138597806d2806d8e8a720bc71d324d1ee35abbd99f25f308ae6f677e85e9610880527f04a97102065302f8e9e64b5bde289968ef902113fcc19e764890ff2c99fd11766108a0527f1bc0f195fa94ec1a0af8803a2c54e0f699aabc65dad9c7ee0bfa4ad3dd1d9b256108c0527f1f90fc8392ac7ac38121e6971fbd3a618f3b9d3422766876b1025bb75d4a65626108e0527f1a7b84a93acc362cbe4e38b217c775f66d2b77c7254c2cf01d7b74b69e64ca13610900527f11c6c9ac90e62b81c05277f5f5e3c761e215e24819985371fcf888a6952db405610920527f27b16166785a2087b1283c2f1e778422ee95863550b7ecaad6e936273ceae5e4610940527f0afa24059e5140370fb356cc4a50226f5582b3499826947378305d6c1e3a61c7610960527f0e85d0c4ce26c7c5bdd31896ab4b4d73a2da0afa0e1aae71629c0f1d480daf97610980527f294e2886bc2eb8200240fadd8b09d122fb4ca148cde5c5b65b23df53a65615a16109a0527f02d7204e4c8c91f05fe718485c7268410bd2012bbaacd7a5b48ebbdcae86a34f6109c0527f0a2e54840fb4f6d2ec2b54309da012f340f9034015e9d325bd6db410db7424b96109e0526000610a00526000610a20527f0de70b2185cf0bf90913c398be440be5c7169bdcad71941cc3a6dab2a845f6bd610a40527f0b4b46ed92ce9a80f93da8e8a3bf03ca4e3a636e10821931cc0d8874e19e92b1610a60526000610a80526000610aa0527f12c30deeb8bede91889aac631e8428bac7ae718558eea0bda9c80b93067bf3cf610ac0527f0fb0c0a95440b4eab1d4547706757b5aab2eb3f8e9722b5ac5ecc0d72e57fe1a610ae0527f0e6732bbd9eca00422421214c32f5af1405cbec8961aa58ce17152a5bce0b239610b00527f1fc2a8266bae00fd0f806ae16866cb01764a3d4f4cf32adcb8518a03a2313925610b20527f1d8da7b5bc51eb6726ead3baa65ab2ed9c02b6f2fbab1a250919e4fc9abbf31b610b40527f2d21dddf7e8faeebce40b7155e738891654da7253b8fd7f26856e6584bbce672610b60527f2efe9812920cb94c58362a7b86faa3a70461c0f8049082450ccc9cd8c1a7b590610b80527efecc2241c2199fd8997c4c39030c026e88bd85961798fa592f15bf98b88355610ba0527f2c5f6f57b6de12ebac88df8cbcf4fee1f2534653b38af65c9d0460aa19e5611d610bc0527f1016ddfc23088e75ffb244eca3f718498dcb64a00ed0bf8c75a5d73689a1f842610be0526044356107e0148116905061066051610844358114821691506105a05160005260206108648260200281015b808210156108a2578135808452861194909416936020928301929091019061087f565b5060649250610c0090506101245b808410156108cf576108c48784868861005e565b9450945094506108b0565b50600091822085810682529091526020908101608083015b80841015610906576108fb8784868861005e565b9450945094506108e7565b5060009182208581068252909152602090810161092385826100a9565b905061014083015b8084101561094a5761093f8784868861005e565b94509450945061092b565b5060009182208581068252909152602090810161010083015b80841015610982576109778784868861005e565b945094509450610963565b506000918220858106825290915260209081016103e083015b808410156109be578335808452861194909416936020938401939092019161099b565b506000918220858106825290915260209081016109db85826100a9565b90506109e98683858761005e565b6000908120888106909452929092529350915060209050610a0c8582848661005e565b92509250925050506106805115610ad9576106c0516106e05160206106a05102610864016020830260028102600382028335838501358386013583870135896020028801895b818a1015610a905760208a0199508935811b86019550888a0135811b85019450878a0135811b84019350868a0135811b830192508a81019050610a52565b50508c60038e8f8788098709088d848509148b169a508c60038e8f8586098509088d828309148b169a5083610d005282610d205281610d405280610d6052505050505050505050505b80610ae357600080fd5b6105c0519250610c80518060005b85811015610b0757848283099150600101610af1565b50610600519450610d80600661066051016020028101610640515b81831015610b43578681880386088352868882099050602083019250610b22565b50856001870384089350838152610b618660208301610d80886100c4565b9450610d809150856105e05185099350610640515b81831015610b995786878285510986098352868882099050602083019250610b76565b50610da0519650610dc09350610e4091505b81841015610bc55785845188089650602084019350610bab565b8561086435855109610660516020958601959193506108849102610864015b80821015610c08578788833588510985089350602082019150602086019550610be4565b505051610d808051610e405194909152610da091909152610dc052610de095909552610e005250610e2092909252610c6051600092907f09226b6e22c6f0ca64ec26aad4c86e715b5f898e5e963f25870e56bbe533e9a290610544356001818603868183089150868284099250600391508681830891505085818309915050610424356104043586038681830891505085818309965050610524359050600281860386818308915086828409925060039150868183089150868284099250600491508681830891505085818309915050610424356103e4356104043587818308880391508790508183089150508581830991505084818684890908955050610544356002818603868183089150868284099250600391508681830891505085818309915050610424356103e435610404358781830988039150879050818308915050858183099150508481868489090895505061052435600181860386818308915086828409925060039150868183089150868284099250600491508681830891505085818309915050610424356103e435610404358703878183088803915087905081830891505085818309915050848186848909089550506105243560018186038681830891508682840992506002915086818308915086828409925060049150868183089150508581830991505061042435610404358603860386818308915050858183099150508481868489090895505061052435600181860386818308915086828409925060029150868183089150868284099250600391508681830891505085818309915050610404358581830991505084818684890908955050610544356001818603868183088781850993505060028782820891505086818409925050850361040435868282089150868282099150508581830991505084818684890908955050610564356001818603868183089150868284099250600391508681830891505085818309915050610424356104443560006103e435610404358981830991505088818308915050878183088803915087905081830891505085818309915050848186848909089550506105643560028186038681830891508682840992506003915086818308915050858183099150506104243560006103e43561040435888183099150508781830888039150879050818308915050858183099150508481868489090895505061058435600281860386818308915086828409925060039150868183089150508581830991505061042435600161040435878183098803915087905081830891505085818309915050848186848909089550506105643560018186038681830887818509935050600287828208915050868184099250506104243561044435610404358881850993505087838209880392508790508282089150508581830991505084818684890908955050610584356001818603868183089150868284099250600291508681830891505085818309915050610424356000610404358781830888039150879050818308915050858183099150508481868489090895505061058435600181860386818308915086828409925060039150868183089150508581830991505061042435610444356000610404358881830891505087818308880391508790508183089150508581830991505084818684890908955050610e00518485610664358309860382089050848186848909089550506106c43584858287038784850908610dc0510990508481868489090895505083846106a43586036106c43508610e00510984818684890908955050610c4051610c205161068435610664358788858a8b6105c43588096103e4350808830991508788858a8b6105e4358809610404350808830991508788858a8b6106043588096104243508088309915087610c805184096000528788858a6000516103e4350808820990508786600051096000528788858a600051610404350808820990508786600051096000528788858a600051610424350808820990508786600051096000528781890383089350505050848586610de051610dc05108830986038208905084818684890908955050610c4051610c20516106e4356106c4358788858a8b610624358809610464350808830991508788858a8b610644358809610e20510808830991508788858a600051610464350808820990508786600051096000528788858a600051610e20510808820990508781890383089350505050848586610de051610dc05108830986038208905084818684890908955050610e005184610704358209905084818684890908955050610dc05184610704358209905084818684890908610c0051610c2051919750915061048435806104a435888181878509089250505086828208905060006104e43560018981830991506103e4358a8184099050828b038b8184089250507f30644e72e131a029b85045b68181585d2833e84879b9709143e1f593efff64b18b81840990508b818308915050610404358b8185099350507f30644e72e131a029b85045b68181585d2833e84879b9709143e1f593efffd92d8b8184099250508a8284089250809350505088818a878509089150508783820860009450919250829190508088808261074435098a03850893508889610704358b0361072435088a838609099450505050858682880384088788610dc051610de0510889036001080991505084818684890908955050610e005184610764358209905084818684890908955050610dc05184610764358209905084818684890908610c0051610c2051919750915061048435806104c435888181878509089250505086828208905060006105043560018981830991506103e4358a8184099050828b038b8184089250507f30644e72e131a029b85045b68181585d2833e84879b9709143e1f593efff64b18b81840990508b818308915050610404358b81850993505060008b8184099250508a8284089250809350505088818a87850908915050878382086000945091925082919050808880826107a435098a03850893508889610764358b0361078435088a838609099450505050858682880384088788610dc051610de0510889036001080991505084818684890908955050505081610da0518409610e40526103a4356000526103c435602052610d805192506103646102a45b8181101561154c5761152d85846101a2565b925061153f6020830135833585610182565b925060408203915061151b565b5050600051610e6052602051610e8052610c80519250610600516106205183828609915081610360528461034052838186099150816103205283818309915083818309915083818309915083818309915083818309915050806103005250610ce05192506103806104006103005b818310156115d757848151860387088352602092830192016115ba565b50506103c0516104005250610380516103a051909350829084099250816103e05184099250826104205282600052610380519250816103e0518409610440526103a05161046081905261038051935082908409610480526103c0516001935082908409602052610320516103405190935060008382810386089050836103a05182099050806040528385850383089050836103c05182096060525050610300516103405161036051919450906000848381038708905084858387038808820990508461038051820990508060805284868603840890508485838703850882099050846103c051820990508060a05284868603830890508485848703840882099050846103e051820960c05250506103405161036051909450905060008382810386089050836103c051820990508060e0528385850383089050836103e0518209610100525061172d9050826101206000846100c4565b9050600051925082610420526104406104a05b8082101561175a5783858351098252602082019150611740565b50506020519250610ca051600083846105a4358709820890508382820990508384610e40518709820890506106446105a45b818110156117ac578586833589098786860908925060208203915061178c565b50506105846104445b818110156117d557858683358909878686090892506020820391506117b5565b505083828209905083846107a43587098208905083828209905083846107443587098208905083828209905083846104043587098208905083828209905083846103e435870982086104a05250506040516000935082908190610444359009840892508182610424356060510984089250816104405184096104c05260805160009350829081906106a43590098408925081826106643560a051098408925081826106843560c0510984089250816104605184099250826104e052610ca0519250600082836107643560e051098208905082836107843561010051098208905082848209905082836107043560e051098208905082836107243561010051098208905082848209905082836106c43560e051098208905082836106e43561010051098208905082610480518209610500525060205161052052604051606051909350829084086105405260805160a0519093508290840892508160c05184086105605260e0516101005190935082908408610580526000925060806105205b8185101561196c578051855260209485019401611954565b505061197c8260806000846100c4565b90508161050051606051099250604060806104e05b818310156119ba5784610cc051870995508485825185510987089550601f199283019201611991565b50505082610ea052610cc05192506102a4356000526102c4356020526119e3610ca051826101a2565b90506119f6610e8051610e605183610182565b9050610bc06108005b81811015611a3357611a14610ca051846101a2565b9250611a266020830151835185610182565b92506040820391506119ff565b5050611a42610ca051826101a2565b9050611a55610184356101643583610182565b9050611a64610ca051826101a2565b9050611a77610144356101243583610182565b9050611a86610ca051826101a2565b9050611a9760c43560a43583610182565b9050611aa6610ca051826101a2565b9050611ab760843560643583610182565b905060e4356080526101043560a052611ad682610440518509826101dc565b9050611ae760a05160805183610182565b905081610cc051840992506101a4356080526101c43560a052611b1082610460518509826101dc565b9050611b2160a05160805183610182565b905081610cc05184099250610264356080526102843560a052611b47610ca051826101dc565b9050611b5a6102443561022435836101bd565b9050611b69610ca051826101dc565b9050611b7c610204356101e435836101bd565b9050611b8e82610480518509826101dc565b9050611b9f60a05160805183610182565b9050610700516080526107205160a052611bbe610ea0518303826101dc565b9050611bcf60a05160805183610182565b90506107c4356080526107e43560a052611bee610400518303826101dc565b9050611bff60a05160805183610182565b9050610804356080526108243560a052611c1c610ce051826101dc565b9050611c2d60a05160805183610182565b9050600051610ec052602051610ee05261080435610f005261082435610f20526106805115611d0157610d0051600052610d2051602052610d4051604052610d6051606052610ec051608052610ee05160a052610f005160c052610f205160e05281610100600020069250611ca283826101a2565b9050611cb5610ee051610ec05183610182565b9050600051610ec052602051610ee052610d4051600052610d6051602052611cdd83826101a2565b9050611cf0610f2051610f005183610182565b9050600051610f0052602051610f20525b611d1a610f2051610f0051610ee051610ec051856101f7565b905080611d2657600080fd5b505050600160005260206000f35b60008060008060408587031215611d4a57600080fd5b843567ffffffffffffffff80821115611d6257600080fd5b818701915087601f830112611d7657600080fd5b813581811115611d8557600080fd5b886020828501011115611d9757600080fd5b602092830196509450908601359080821115611db257600080fd5b818701915087601f830112611dc657600080fd5b813581811115611dd557600080fd5b8860208260051b8501011115611dea57600080fd5b9598949750506020019450505056fea264697066735822122005a57bdd6eed59f04d721024832e07ae4d56e2f9308547396154da4da5f4a58464736f6c63430008090033",
    "linkReferences": {}
  },
  "methodIdentifiers": {
    "verifyProof(bytes,uint256[])": "1e8e1e13"
  },
  "id": 8
}