{
  "abi": [
    {
      "inputs": [
        {
          "internalType": "address",
          "name": "_airnodeRrp",
          "type": "address"
        }
      ],
      "stateMutability": "nonpayable",
      "type": "constructor"
    },
    {
      "anonymous": false,
      "inputs": [
        {
          "indexed": true,
          "internalType": "address",
          "name": "previousOwner",
          "type": "address"
        },
        {
          "indexed": true,
          "internalType": "address",
          "name": "newOwner",
          "type": "address"
        }
      ],
      "name": "OwnershipTransferred",
      "type": "event"
    },
    {
      "anonymous": false,
      "inputs": [
        {
          "indexed": true,
          "internalType": "bytes32",
          "name": "requestId",
          "type": "bytes32"
        },
        {
          "indexed": false,
          "internalType": "uint256",
          "name": "response",
          "type": "uint256"
        }
      ],
      "name": "ReceivedUint256",
      "type": "event"
    },
    {
      "anonymous": false,
      "inputs": [
        {
          "indexed": true,
          "internalType": "bytes32",
          "name": "requestId",
          "type": "bytes32"
        },
        {
          "indexed": false,
          "internalType": "uint256[]",
          "name": "response",
          "type": "uint256[]"
        }
      ],
      "name": "ReceivedUint256Array",
      "type": "event"
    },
    {
      "anonymous": false,
      "inputs": [
        {
          "indexed": true,
          "internalType": "bytes32",
          "name": "requestId",
          "type": "bytes32"
        }
      ],
      "name": "RequestedUint256",
      "type": "event"
    },
    {
      "anonymous": false,
      "inputs": [
        {
          "indexed": true,
          "internalType": "bytes32",
          "name": "requestId",
          "type": "bytes32"
        },
        {
          "indexed": false,
          "internalType": "uint256",
          "name": "size",
          "type": "uint256"
        }
      ],
      "name": "RequestedUint256Array",
      "type": "event"
    },
    {
      "anonymous": false,
      "inputs": [
        {
          "indexed": true,
          "internalType": "address",
          "name": "airnode",
          "type": "address"
        },
        {
          "indexed": true,
          "internalType": "address",
          "name": "sponsorWallet",
          "type": "address"
        }
      ],
      "name": "WithdrawalRequested",
      "type": "event"
    },
    {
      "inputs": [],
      "name": "_qrngUint256",
      "outputs": [
        {
          "internalType": "uint256",
          "name": "",
          "type": "uint256"
        }
      ],
      "stateMutability": "view",
      "type": "function"
    },
    {
      "inputs": [
        {
          "internalType": "uint256",
          "name": "",
          "type": "uint256"
        }
      ],
      "name": "_qrngUint256Array",
      "outputs": [
        {
          "internalType": "uint256",
          "name": "",
          "type": "uint256"
        }
      ],
      "stateMutability": "view",
      "type": "function"
    },
    {
      "inputs": [],
      "name": "airnode",
      "outputs": [
        {
          "internalType": "address",
          "name": "",
          "type": "address"
        }
      ],
      "stateMutability": "view",
      "type": "function"
    },
    {
      "inputs": [],
      "name": "airnodeRrp",
      "outputs": [
        {
          "internalType": "contract IAirnodeRrpV0",
          "name": "",
          "type": "address"
        }
      ],
      "stateMutability": "view",
      "type": "function"
    },
    {
      "inputs": [],
      "name": "endpointIdUint256",
      "outputs": [
        {
          "internalType": "bytes32",
          "name": "",
          "type": "bytes32"
        }
      ],
      "stateMutability": "view",
      "type": "function"
    },
    {
      "inputs": [],
      "name": "endpointIdUint256Array",
      "outputs": [
        {
          "internalType": "bytes32",
          "name": "",
          "type": "bytes32"
        }
      ],
      "stateMutability": "view",
      "type": "function"
    },
    {
      "inputs": [
        {
          "internalType": "bytes32",
          "name": "",
          "type": "bytes32"
        }
      ],
      "name": "expectingRequestWithIdToBeFulfilled",
      "outputs": [
        {
          "internalType": "bool",
          "name": "",
          "type": "bool"
        }
      ],
      "stateMutability": "view",
      "type": "function"
    },
    {
      "inputs": [
        {
          "internalType": "bytes32",
          "name": "requestId",
          "type": "bytes32"
        },
        {
          "internalType": "bytes",
          "name": "data",
          "type": "bytes"
        }
      ],
      "name": "fulfillUint256",
      "outputs": [],
      "stateMutability": "nonpayable",
      "type": "function"
    },
    {
      "inputs": [
        {
          "internalType": "bytes32",
          "name": "requestId",
          "type": "bytes32"
        },
        {
          "internalType": "bytes",
          "name": "data",
          "type": "bytes"
        }
      ],
      "name": "fulfillUint256Array",
      "outputs": [],
      "stateMutability": "nonpayable",
      "type": "function"
    },
    {
      "inputs": [],
      "name": "getRandomNumber",
      "outputs": [
        {
          "internalType": "uint256",
          "name": "",
          "type": "uint256"
        }
      ],
      "stateMutability": "view",
      "type": "function"
    },
    {
      "inputs": [],
      "name": "getRandomNumberArray",
      "outputs": [
        {
          "internalType": "uint256[]",
          "name": "",
          "type": "uint256[]"
        }
      ],
      "stateMutability": "view",
      "type": "function"
    },
    {
      "inputs": [],
      "name": "makeRequestUint256",
      "outputs": [],
      "stateMutability": "nonpayable",
      "type": "function"
    },
    {
      "inputs": [
        {
          "internalType": "uint256",
          "name": "size",
          "type": "uint256"
        }
      ],
      "name": "makeRequestUint256Array",
      "outputs": [],
      "stateMutability": "nonpayable",
      "type": "function"
    },
    {
      "inputs": [],
      "name": "owner",
      "outputs": [
        {
          "internalType": "address",
          "name": "",
          "type": "address"
        }
      ],
      "stateMutability": "view",
      "type": "function"
    },
    {
      "inputs": [],
      "name": "renounceOwnership",
      "outputs": [],
      "stateMutability": "nonpayable",
      "type": "function"
    },
    {
      "inputs": [
        {
          "internalType": "address",
          "name": "_airnode",
          "type": "address"
        },
        {
          "internalType": "bytes32",
          "name": "_endpointIdUint256",
          "type": "bytes32"
        },
        {
          "internalType": "bytes32",
          "name": "_endpointIdUint256Array",
          "type": "bytes32"
        },
        {
          "internalType": "address",
          "name": "_sponsorWallet",
          "type": "address"
        }
      ],
      "name": "setRequestParameters",
      "outputs": [],
      "stateMutability": "nonpayable",
      "type": "function"
    },
    {
      "inputs": [],
      "name": "sponsorWallet",
      "outputs": [
        {
          "internalType": "address",
          "name": "",
          "type": "address"
        }
      ],
      "stateMutability": "view",
      "type": "function"
    },
    {
      "inputs": [
        {
          "internalType": "address",
          "name": "newOwner",
          "type": "address"
        }
      ],
      "name": "transferOwnership",
      "outputs": [],
      "stateMutability": "nonpayable",
      "type": "function"
    },
    {
      "inputs": [],
      "name": "withdraw",
      "outputs": [],
      "stateMutability": "nonpayable",
      "type": "function"
    },
    {
      "stateMutability": "payable",
      "type": "receive"
    }
  ],
  "bytecode": {
    "object": "0x60a060405234801561001057600080fd5b5060405161106638038061106683398101604081905261002f91610107565b6001600160a01b0381166080819052604051632b77c09f60e21b81523060048201526001602482015282919063addf027c90604401600060405180830381600087803b15801561007e57600080fd5b505af1158015610092573d6000803e3d6000fd5b50505050506100ad6100a86100b360201b60201c565b6100b7565b50610137565b3390565b600080546001600160a01b038381166001600160a01b0319831681178455604051919092169283917f8be0079c531659141344cd1fd0a4f28419497f9722a3daafe3b4186f6b6457e09190a35050565b60006020828403121561011957600080fd5b81516001600160a01b038116811461013057600080fd5b9392505050565b608051610ef161017560003960008181610312015281816104550152818161063a0152818161075f015281816108ad015261098a0152610ef16000f3fe6080604052600436106101185760003560e01c8063715018a6116100a0578063a36ff4d811610064578063a36ff4d8146103c0578063bf90fb4e146103e0578063dbdff2c114610400578063dea12bad14610415578063f2fde38b1461042a57600080fd5b8063715018a6146102eb57806371bab66614610300578063851244f71461034c5780638da5cb5b1461038c578063a19954af146103aa57600080fd5b8063321bd1fd116100e7578063321bd1fd1461022b5780633718d90a1461024b5780633ccfd60b1461026b5780635675e4e4146102805780636ec3c393146102d557600080fd5b806307b9fc571461019e5780630d31d52a146101c75780631cfb28ff146101e95780632b7d3d221461020b57600080fd5b3661019957600080546040516001600160a01b03909116913480156108fc02929091818181858888f19350505050158015610157573d6000803e3d6000fd5b506004546001546040516001600160a01b0392831692909116907f1d7c8dd9fcc2d73a74f751d35799b67c34a0a1828f325c1f960c7a6ae27d88af90600090a3005b600080fd5b3480156101aa57600080fd5b506101b460025481565b6040519081526020015b60405180910390f35b3480156101d357600080fd5b506101e76101e2366004610bd1565b61044a565b005b3480156101f557600080fd5b506101fe61058c565b6040516101be9190610c4d565b34801561021757600080fd5b506101e7610226366004610c91565b6105e4565b34801561023757600080fd5b506101b4610246366004610c91565b610733565b34801561025757600080fd5b506101e7610266366004610bd1565b610754565b34801561027757600080fd5b506101e7610876565b34801561028c57600080fd5b506101e761029b366004610cc6565b600180546001600160a01b039586166001600160a01b03199182161790915560029390935560039190915560048054919093169116179055565b3480156102e157600080fd5b506101b460055481565b3480156102f757600080fd5b506101e761090d565b34801561030c57600080fd5b506103347f000000000000000000000000000000000000000000000000000000000000000081565b6040516001600160a01b0390911681526020016101be565b34801561035857600080fd5b5061037c610367366004610c91565b60076020526000908152604090205460ff1681565b60405190151581526020016101be565b34801561039857600080fd5b506000546001600160a01b0316610334565b3480156103b657600080fd5b506101b460035481565b3480156103cc57600080fd5b50600154610334906001600160a01b031681565b3480156103ec57600080fd5b50600454610334906001600160a01b031681565b34801561040c57600080fd5b506005546101b4565b34801561042157600080fd5b506101e7610921565b34801561043657600080fd5b506101e7610445366004610d0c565b610a4e565b336001600160a01b037f000000000000000000000000000000000000000000000000000000000000000016146104c05760405162461bcd60e51b8152602060048201526016602482015275043616c6c6572206e6f74204169726e6f6465205252560541b60448201526064015b60405180910390fd5b60008381526007602052604090205460ff166105155760405162461bcd60e51b81526020600482015260146024820152732932b8bab2b9ba1024a2103737ba1035b737bbb760611b60448201526064016104b7565b6000838152600760205260408120805460ff1916905561053782840184610d44565b805190915061054d906006906020840190610b71565b50837f47b5f552f55573ad9b766ef18360830d3e90ecdfbef4c7bea49379a0ce64913c8260405161057e9190610c4d565b60405180910390a250505050565b606060068054806020026020016040519081016040528092919081815260200182805480156105da57602002820191906000526020600020905b8154815260200190600101908083116105c6575b5050505050905090565b6001546003546004546040805161317560f01b60208201526373697a6560e01b818301526060808201879052825180830390910181526080820192839052636e6be03f60e01b9092526000946001600160a01b037f0000000000000000000000000000000000000000000000000000000000000000811695636e6be03f95610685959383169491933093909116918391630698ea9560e11b91608401610e02565b602060405180830381600087803b15801561069f57600080fd5b505af11580156106b3573d6000803e3d6000fd5b505050506040513d601f19601f820116820180604052508101906106d79190610ea2565b60008181526007602052604090819020805460ff191660011790555190915081907f6529de56040715a55618ee5797cd3bc856b65ded8fee01e2a24c8481de9e2aaf906107279085815260200190565b60405180910390a25050565b6006818154811061074357600080fd5b600091825260209091200154905081565b336001600160a01b037f000000000000000000000000000000000000000000000000000000000000000016146107c55760405162461bcd60e51b8152602060048201526016602482015275043616c6c6572206e6f74204169726e6f6465205252560541b60448201526064016104b7565b60008381526007602052604090205460ff1661081a5760405162461bcd60e51b81526020600482015260146024820152732932b8bab2b9ba1024a2103737ba1035b737bbb760611b60448201526064016104b7565b6000838152600760205260408120805460ff1916905561083c82840184610c91565b600581905560405181815290915084907f1ca47bacd454c26163f84eff4aa514e291ba9fa67ad6029e39567c122bbed30f9060200161057e565b61087e610ac7565b60015460048054604051631d414cbd60e01b81526001600160a01b0393841692810192909252821660248201527f000000000000000000000000000000000000000000000000000000000000000090911690631d414cbd90604401600060405180830381600087803b1580156108f357600080fd5b505af1158015610907573d6000803e3d6000fd5b50505050565b610915610ac7565b61091f6000610b21565b565b60015460025460048054604051636e6be03f60e01b81526001600160a01b03948516928101929092526024820192909252306044820181905291831660648201526084810191909152631b8c6c8560e11b60a482015260e060c4820152600060e48201819052917f00000000000000000000000000000000000000000000000000000000000000001690636e6be03f9061010401602060405180830381600087803b1580156109cf57600080fd5b505af11580156109e3573d6000803e3d6000fd5b505050506040513d601f19601f82011682018060405250810190610a079190610ea2565b600081815260076020526040808220805460ff191660011790555191925082917fcba2da2f3c0c732a104019a3104936397dde7343964c1518ceb760052e4537b19190a250565b610a56610ac7565b6001600160a01b038116610abb5760405162461bcd60e51b815260206004820152602660248201527f4f776e61626c653a206e6577206f776e657220697320746865207a65726f206160448201526564647265737360d01b60648201526084016104b7565b610ac481610b21565b50565b6000546001600160a01b0316331461091f5760405162461bcd60e51b815260206004820181905260248201527f4f776e61626c653a2063616c6c6572206973206e6f7420746865206f776e657260448201526064016104b7565b600080546001600160a01b038381166001600160a01b0319831681178455604051919092169283917f8be0079c531659141344cd1fd0a4f28419497f9722a3daafe3b4186f6b6457e09190a35050565b828054828255906000526020600020908101928215610bac579160200282015b82811115610bac578251825591602001919060010190610b91565b50610bb8929150610bbc565b5090565b5b80821115610bb85760008155600101610bbd565b600080600060408486031215610be657600080fd5b83359250602084013567ffffffffffffffff80821115610c0557600080fd5b818601915086601f830112610c1957600080fd5b813581811115610c2857600080fd5b876020828501011115610c3a57600080fd5b6020830194508093505050509250925092565b6020808252825182820181905260009190848201906040850190845b81811015610c8557835183529284019291840191600101610c69565b50909695505050505050565b600060208284031215610ca357600080fd5b5035919050565b80356001600160a01b0381168114610cc157600080fd5b919050565b60008060008060808587031215610cdc57600080fd5b610ce585610caa565b93506020850135925060408501359150610d0160608601610caa565b905092959194509250565b600060208284031215610d1e57600080fd5b610d2782610caa565b9392505050565b634e487b7160e01b600052604160045260246000fd5b60006020808385031215610d5757600080fd5b823567ffffffffffffffff80821115610d6f57600080fd5b818501915085601f830112610d8357600080fd5b813581811115610d9557610d95610d2e565b8060051b604051601f19603f83011681018181108582111715610dba57610dba610d2e565b604052918252848201925083810185019188831115610dd857600080fd5b938501935b82851015610df657843584529385019392850192610ddd565b98975050505050505050565b6001600160a01b03888116825260208083018990528782166040840152868216606084015290851660808301526001600160e01b0319841660a083015260e060c083018190528351908301819052600091825b82811015610e725785810182015185820161010001528101610e55565b82811115610e8557600061010084870101525b5050601f01601f1916919091016101000198975050505050505050565b600060208284031215610eb457600080fd5b505191905056fea26469706673582212201a83d793bd0357fde5c33f8b42d90a37d8ae055b7b0cc87fd321f4e68e8d36ed64736f6c63430008090033",
    "linkReferences": {}
  },
  "methodIdentifiers": {
    "_qrngUint256()": "6ec3c393",
    "_qrngUint256Array(uint256)": "321bd1fd",
    "airnode()": "a36ff4d8",
    "airnodeRrp()": "71bab666",
    "endpointIdUint256()": "07b9fc57",
    "endpointIdUint256Array()": "a19954af",
    "expectingRequestWithIdToBeFulfilled(bytes32)": "851244f7",
    "fulfillUint256(bytes32,bytes)": "3718d90a",
    "fulfillUint256Array(bytes32,bytes)": "0d31d52a",
    "getRandomNumber()": "dbdff2c1",
    "getRandomNumberArray()": "1cfb28ff",
    "makeRequestUint256()": "dea12bad",
    "makeRequestUint256Array(uint256)": "2b7d3d22",
    "owner()": "8da5cb5b",
    "renounceOwnership()": "715018a6",
    "setRequestParameters(address,bytes32,bytes32,address)": "5675e4e4",
    "sponsorWallet()": "bf90fb4e",
    "transferOwnership(address)": "f2fde38b",
    "withdraw()": "3ccfd60b"
  },
  "id": 7
}